{
  "address": "0xFb961Da4ccaa8921e7A79C7f8E390F020e86E565",
  "abi": [
    {
      "inputs": [
        {
          "internalType": "address",
          "name": "l1OwnerAddr",
          "type": "address"
        }
      ],
      "stateMutability": "nonpayable",
      "type": "constructor"
    },
    {
      "anonymous": false,
      "inputs": [
        {
          "indexed": true,
          "internalType": "address",
          "name": "from",
          "type": "address"
        },
        {
          "indexed": true,
          "internalType": "address",
          "name": "to",
          "type": "address"
        }
      ],
      "name": "L1OwnershipTransferred",
      "type": "event"
    },
    {
      "anonymous": false,
      "inputs": [
        {
          "indexed": true,
          "internalType": "address",
          "name": "from",
          "type": "address"
        },
        {
          "indexed": true,
          "internalType": "address",
          "name": "to",
          "type": "address"
        }
      ],
      "name": "OwnershipTransferRequested",
      "type": "event"
    },
    {
      "anonymous": false,
      "inputs": [
        {
          "indexed": true,
          "internalType": "address",
          "name": "from",
          "type": "address"
        },
        {
          "indexed": true,
          "internalType": "address",
          "name": "to",
          "type": "address"
        }
      ],
      "name": "OwnershipTransferred",
      "type": "event"
    },
    {
      "inputs": [],
      "name": "acceptOwnership",
      "outputs": [],
      "stateMutability": "nonpayable",
      "type": "function"
    },
    {
      "inputs": [],
      "name": "crossDomainMessenger",
      "outputs": [
        {
          "internalType": "address",
          "name": "",
          "type": "address"
        }
      ],
      "stateMutability": "view",
      "type": "function"
    },
    {
      "inputs": [
        {
          "internalType": "address",
          "name": "target",
          "type": "address"
        },
        {
          "internalType": "bytes",
          "name": "data",
          "type": "bytes"
        }
      ],
      "name": "forward",
      "outputs": [],
      "stateMutability": "nonpayable",
      "type": "function"
    },
    {
      "inputs": [
        {
          "internalType": "address",
          "name": "target",
          "type": "address"
        },
        {
          "internalType": "bytes",
          "name": "data",
          "type": "bytes"
        }
      ],
      "name": "forwardDelegate",
      "outputs": [],
      "stateMutability": "nonpayable",
      "type": "function"
    },
    {
      "inputs": [],
      "name": "l1Owner",
      "outputs": [
        {
          "internalType": "address",
          "name": "",
          "type": "address"
        }
      ],
      "stateMutability": "view",
      "type": "function"
    },
    {
      "inputs": [],
      "name": "owner",
      "outputs": [
        {
          "internalType": "address",
          "name": "",
          "type": "address"
        }
      ],
      "stateMutability": "view",
      "type": "function"
    },
    {
      "inputs": [
        {
          "internalType": "address",
          "name": "to",
          "type": "address"
        }
      ],
      "name": "transferL1Ownership",
      "outputs": [],
      "stateMutability": "nonpayable",
      "type": "function"
    },
    {
      "inputs": [
        {
          "internalType": "address",
          "name": "to",
          "type": "address"
        }
      ],
      "name": "transferOwnership",
      "outputs": [],
      "stateMutability": "nonpayable",
      "type": "function"
    },
    {
      "inputs": [],
      "name": "typeAndVersion",
      "outputs": [
        {
          "internalType": "string",
          "name": "",
          "type": "string"
        }
      ],
      "stateMutability": "pure",
      "type": "function"
    }
  ],
  "transactionHash": "0xc1b3da30d771087af2651ecf06bf4dc90b5566afdade2f4f309364aabe507e15",
  "args": [
    "0x71C05a4eA5E9d5b1Ac87Bf962a043f5265d4Bdc8"
  ],
  "solcInputHash": "eb9f056bcc947d1ca978c95932f0516f",
  "bytecode": "0x608060405234801561001057600080fd5b50604051610cae380380610cae83398101604081905261002f916101e2565b8033806000816100865760405162461bcd60e51b815260206004820152601860248201527f43616e6e6f7420736574206f776e657220746f207a65726f000000000000000060448201526064015b60405180910390fd5b600080546001600160a01b0319166001600160a01b03848116919091179091558116156100b6576100b6816100cf565b5050506100c88161017960201b60201c565b5050610212565b6001600160a01b0381163314156101285760405162461bcd60e51b815260206004820152601760248201527f43616e6e6f74207472616e7366657220746f2073656c66000000000000000000604482015260640161007d565b600180546001600160a01b0319166001600160a01b0383811691821790925560008054604051929316917fed8889f560326eb138920d842192f0eb3dd22b4f139c87a2c57538e05bae12789190a350565b6002546001600160a01b0390811690821681146101de57600280546001600160a01b0319166001600160a01b0384811691821790925560405190918316907fb0121dbcab67289d5cb13a1f35ca086715f35ef418e0eda134c4145a086b627290600090a35b5050565b6000602082840312156101f457600080fd5b81516001600160a01b038116811461020b57600080fd5b9392505050565b610a8d806102216000396000f3fe608060405234801561001057600080fd5b50600436106100a35760003560e01c80638da5cb5b11610076578063d2db63721161005b578063d2db637214610148578063f2fde38b14610166578063f43b36131461017957600080fd5b80638da5cb5b146100f657806396b8d7c01461013557600080fd5b8063181f5a77146100a857806326929eb6146100c65780636fadcf72146100db57806379ba5097146100ee575b600080fd5b6100b0610181565b6040516100bd9190610935565b60405180910390f35b6100d96100d43660046107ef565b6101a1565b005b6100d96100e93660046107ef565b61030f565b6100d961042c565b60005473ffffffffffffffffffffffffffffffffffffffff165b60405173ffffffffffffffffffffffffffffffffffffffff90911681526020016100bd565b6100d96101433660046107cd565b610529565b60025473ffffffffffffffffffffffffffffffffffffffff16610110565b6100d96101743660046107cd565b61053d565b61011061054e565b6060604051806060016040528060228152602001610a3660229139905090565b6101a961054e565b73ffffffffffffffffffffffffffffffffffffffff163373ffffffffffffffffffffffffffffffffffffffff1614610242576040517f08c379a000000000000000000000000000000000000000000000000000000000815260206004820152601e60248201527f53656e646572206973206e6f7420746865204c32206d657373656e676572000060448201526064015b60405180910390fd5b6000808373ffffffffffffffffffffffffffffffffffffffff168360405161026a9190610919565b600060405180830381855af49150503d80600081146102a5576040519150601f19603f3d011682016040523d82523d6000602084013e6102aa565b606091505b509150915081816040516020016102c19190610948565b60405160208183030381529060405290610308576040517f08c379a00000000000000000000000000000000000000000000000000000000081526004016102399190610935565b5050505050565b61031761054e565b73ffffffffffffffffffffffffffffffffffffffff163373ffffffffffffffffffffffffffffffffffffffff16146103ab576040517f08c379a000000000000000000000000000000000000000000000000000000000815260206004820152601e60248201527f53656e646572206973206e6f7420746865204c32206d657373656e67657200006044820152606401610239565b6000808373ffffffffffffffffffffffffffffffffffffffff16836040516103d39190610919565b6000604051808303816000865af19150503d8060008114610410576040519150601f19603f3d011682016040523d82523d6000602084013e610415565b606091505b509150915081816040516020016102c1919061098f565b60015473ffffffffffffffffffffffffffffffffffffffff1633146104ad576040517f08c379a000000000000000000000000000000000000000000000000000000000815260206004820152601660248201527f4d7573742062652070726f706f736564206f776e6572000000000000000000006044820152606401610239565b60008054337fffffffffffffffffffffffff00000000000000000000000000000000000000008083168217845560018054909116905560405173ffffffffffffffffffffffffffffffffffffffff90921692909183917f8be0079c531659141344cd1fd0a4f28419497f9722a3daafe3b4186f6b6457e091a350565b610531610590565b61053a81610613565b50565b610545610590565b61053a816106ae565b600061058b61057260025473ffffffffffffffffffffffffffffffffffffffff1690565b7311110000000000000000000000000000000011110190565b905090565b60005473ffffffffffffffffffffffffffffffffffffffff163314610611576040517f08c379a000000000000000000000000000000000000000000000000000000000815260206004820152601660248201527f4f6e6c792063616c6c61626c65206279206f776e6572000000000000000000006044820152606401610239565b565b60025473ffffffffffffffffffffffffffffffffffffffff90811690821681146106aa57600280547fffffffffffffffffffffffff00000000000000000000000000000000000000001673ffffffffffffffffffffffffffffffffffffffff84811691821790925560405190918316907fb0121dbcab67289d5cb13a1f35ca086715f35ef418e0eda134c4145a086b627290600090a35b5050565b73ffffffffffffffffffffffffffffffffffffffff811633141561072e576040517f08c379a000000000000000000000000000000000000000000000000000000000815260206004820152601760248201527f43616e6e6f74207472616e7366657220746f2073656c660000000000000000006044820152606401610239565b600180547fffffffffffffffffffffffff00000000000000000000000000000000000000001673ffffffffffffffffffffffffffffffffffffffff83811691821790925560008054604051929316917fed8889f560326eb138920d842192f0eb3dd22b4f139c87a2c57538e05bae12789190a350565b803573ffffffffffffffffffffffffffffffffffffffff811681146107c857600080fd5b919050565b6000602082840312156107df57600080fd5b6107e8826107a4565b9392505050565b6000806040838503121561080257600080fd5b61080b836107a4565b9150602083013567ffffffffffffffff8082111561082857600080fd5b818501915085601f83011261083c57600080fd5b81358181111561084e5761084e610a06565b604051601f82017fffffffffffffffffffffffffffffffffffffffffffffffffffffffffffffffe0908116603f0116810190838211818310171561089457610894610a06565b816040528281528860208487010111156108ad57600080fd5b8260208601602083013760006020848301015280955050505050509250929050565b600081518084526108e78160208601602086016109d6565b601f017fffffffffffffffffffffffffffffffffffffffffffffffffffffffffffffffe0169290920160200192915050565b6000825161092b8184602087016109d6565b9190910192915050565b6020815260006107e860208301846108cf565b60408152601c60408201527f78446f6d61696e2064656c656761746563616c6c206661696c65643a0000000060608201526080602082015260006107e860808301846108cf565b60408152601460408201527f78446f6d61696e2063616c6c206661696c65643a00000000000000000000000060608201526080602082015260006107e860808301846108cf565b60005b838110156109f15781810151838201526020016109d9565b83811115610a00576000848401525b50505050565b7f4e487b7100000000000000000000000000000000000000000000000000000000600052604160045260246000fdfe417262697472756d43726f7373446f6d61696e466f7277617264657220302e312e30a2646970667358221220ce4d4743057cd18db631899ff2e9dc0cbd9049c458744ba66972cad919a19e3e64736f6c63430008060033",
  "devdoc": {
    "details": "Any other L2 contract which uses this contract's address as a privileged position,   can be considered to be owned by the `l1Owner`",
    "kind": "dev",
    "methods": {
      "constructor": {
        "params": {
          "l1OwnerAddr": "the L1 owner address that will be allowed to call the forward fn"
        }
      },
      "crossDomainMessenger()": {
        "returns": {
          "_0": "xDomain messenger address (L2 `msg.sender`)"
        }
      },
      "forward(address,bytes)": {
        "details": "forwarded only if L2 Messenger calls with `xDomainMessageSender` beeing the L1 owner address",
        "params": {
          "data": "to send to target contract",
          "target": "contract address to be called"
        }
      },
      "forwardDelegate(address,bytes)": {
        "details": "forwarded only if L2 Messenger calls with `xDomainMessageSender` beeing the L1 owner address"
      },
      "l1Owner()": {
        "returns": {
          "_0": "L1 owner address"
        }
      },
      "transferL1Ownership(address)": {
        "details": "Forwarding can be disabled by setting the L1 owner as `address(0)`. Accessible only by owner.",
        "params": {
          "to": "new L1 owner that will be allowed to call the forward fn"
        }
      }
    },
    "title": "ArbitrumCrossDomainForwarder - L1 xDomain account representation",
    "version": 1
  },
  "userdoc": {
    "kind": "user",
    "methods": {
      "acceptOwnership()": {
        "notice": "Allows an ownership transfer to be completed by the recipient."
      },
      "constructor": {
        "notice": "creates a new Arbitrum xDomain Forwarder contract"
      },
      "crossDomainMessenger()": {
        "notice": "The L2 xDomain `msg.sender`, generated from L1 sender address"
      },
      "forward(address,bytes)": {
        "notice": "forward calls the `target` with `data`"
      },
      "owner()": {
        "notice": "Get the current owner"
      },
      "transferL1Ownership(address)": {
        "notice": "transfer ownership of this account to a new L1 owner"
      },
      "transferOwnership(address)": {
        "notice": "Allows an owner to begin transferring ownership to a new address, pending."
      },
      "typeAndVersion()": {
        "notice": "versions: - ArbitrumCrossDomainForwarder 0.1.0: initial release"
      }
    },
    "notice": "L2 Contract which receives messages from a specific L1 address and transparently forwards them to the destination.",
    "version": 1
  },
  "storageLayout": {
    "storage": [
      {
        "astId": 152,
        "contract": "contracts/ArbitrumCrossDomainForwarder.sol:ArbitrumCrossDomainForwarder",
        "label": "s_owner",
        "offset": 0,
        "slot": "0",
        "type": "t_address"
      },
      {
        "astId": 154,
        "contract": "contracts/ArbitrumCrossDomainForwarder.sol:ArbitrumCrossDomainForwarder",
        "label": "s_pendingOwner",
        "offset": 0,
        "slot": "1",
        "type": "t_address"
      },
      {
        "astId": 317,
        "contract": "contracts/ArbitrumCrossDomainForwarder.sol:ArbitrumCrossDomainForwarder",
        "label": "s_l1Owner",
        "offset": 0,
        "slot": "2",
        "type": "t_address"
      }
    ],
    "types": {
      "t_address": {
        "encoding": "inplace",
        "label": "address",
        "numberOfBytes": "20"
      }
    }
  }
}