{
  "address": "0x4A9D21B46810F69A02ac2D61f4bF1963DE82700d",
  "abi": [
    {
      "anonymous": false,
      "inputs": [
        {
          "indexed": true,
          "internalType": "address",
          "name": "from",
          "type": "address"
        },
        {
          "indexed": true,
          "internalType": "address",
          "name": "to",
          "type": "address"
        }
      ],
      "name": "OwnershipTransferRequested",
      "type": "event"
    },
    {
      "anonymous": false,
      "inputs": [
        {
          "indexed": true,
          "internalType": "address",
          "name": "from",
          "type": "address"
        },
        {
          "indexed": true,
          "internalType": "address",
          "name": "to",
          "type": "address"
        }
      ],
      "name": "OwnershipTransferred",
      "type": "event"
    },
    {
      "inputs": [],
      "name": "acceptOwnership",
      "outputs": [],
      "stateMutability": "nonpayable",
      "type": "function"
    },
    {
      "inputs": [],
      "name": "greeting",
      "outputs": [
        {
          "internalType": "string",
          "name": "",
          "type": "string"
        }
      ],
      "stateMutability": "view",
      "type": "function"
    },
    {
      "inputs": [],
      "name": "owner",
      "outputs": [
        {
          "internalType": "address",
          "name": "",
          "type": "address"
        }
      ],
      "stateMutability": "view",
      "type": "function"
    },
    {
      "inputs": [
        {
          "internalType": "string",
          "name": "_greeting",
          "type": "string"
        }
      ],
      "name": "setGreeting",
      "outputs": [],
      "stateMutability": "nonpayable",
      "type": "function"
    },
    {
      "inputs": [
        {
          "internalType": "address",
          "name": "to",
          "type": "address"
        }
      ],
      "name": "transferOwnership",
      "outputs": [],
      "stateMutability": "nonpayable",
      "type": "function"
    }
  ],
  "transactionHash": "0x38a1d4db483bd9c06f0769648587882bf2c0984486a42ece4d29f412ba8b7dd3",
  "args": [],
  "solcInputHash": "33e3fe74e29e8cc877e23e8379a512a6",
  "bytecode": "0x608060405234801561001057600080fd5b5033806000816100675760405162461bcd60e51b815260206004820152601860248201527f43616e6e6f7420736574206f776e657220746f207a65726f000000000000000060448201526064015b60405180910390fd5b600080546001600160a01b0319166001600160a01b0384811691909117909155811615610097576100978161009f565b505050610149565b6001600160a01b0381163314156100f85760405162461bcd60e51b815260206004820152601760248201527f43616e6e6f74207472616e7366657220746f2073656c66000000000000000000604482015260640161005e565b600180546001600160a01b0319166001600160a01b0383811691821790925560008054604051929316917fed8889f560326eb138920d842192f0eb3dd22b4f139c87a2c57538e05bae12789190a350565b61066f806101586000396000f3fe608060405234801561001057600080fd5b50600436106100675760003560e01c8063a413686211610050578063a4136862146100a3578063ef690cc0146100b6578063f2fde38b146100cb57600080fd5b806379ba50971461006c5780638da5cb5b14610076575b600080fd5b6100746100de565b005b60005460405173ffffffffffffffffffffffffffffffffffffffff90911681526020015b60405180910390f35b6100746100b1366004610500565b6101e0565b6100be6101f1565b60405161009a9190610572565b6100746100d93660046104c3565b61027f565b60015473ffffffffffffffffffffffffffffffffffffffff163314610164576040517f08c379a000000000000000000000000000000000000000000000000000000000815260206004820152601660248201527f4d7573742062652070726f706f736564206f776e65720000000000000000000060448201526064015b60405180910390fd5b60008054337fffffffffffffffffffffffff00000000000000000000000000000000000000008083168217845560018054909116905560405173ffffffffffffffffffffffffffffffffffffffff90921692909183917f8be0079c531659141344cd1fd0a4f28419497f9722a3daafe3b4186f6b6457e091a350565b6101ec6002838361040c565b505050565b600280546101fe906105e5565b80601f016020809104026020016040519081016040528092919081815260200182805461022a906105e5565b80156102775780601f1061024c57610100808354040283529160200191610277565b820191906000526020600020905b81548152906001019060200180831161025a57829003601f168201915b505050505081565b610287610293565b61029081610316565b50565b60005473ffffffffffffffffffffffffffffffffffffffff163314610314576040517f08c379a000000000000000000000000000000000000000000000000000000000815260206004820152601660248201527f4f6e6c792063616c6c61626c65206279206f776e657200000000000000000000604482015260640161015b565b565b73ffffffffffffffffffffffffffffffffffffffff8116331415610396576040517f08c379a000000000000000000000000000000000000000000000000000000000815260206004820152601760248201527f43616e6e6f74207472616e7366657220746f2073656c66000000000000000000604482015260640161015b565b600180547fffffffffffffffffffffffff00000000000000000000000000000000000000001673ffffffffffffffffffffffffffffffffffffffff83811691821790925560008054604051929316917fed8889f560326eb138920d842192f0eb3dd22b4f139c87a2c57538e05bae12789190a350565b828054610418906105e5565b90600052602060002090601f01602090048101928261043a576000855561049e565b82601f10610471578280017fffffffffffffffffffffffffffffffffffffffffffffffffffffffffffffff0082351617855561049e565b8280016001018555821561049e579182015b8281111561049e578235825591602001919060010190610483565b506104aa9291506104ae565b5090565b5b808211156104aa57600081556001016104af565b6000602082840312156104d557600080fd5b813573ffffffffffffffffffffffffffffffffffffffff811681146104f957600080fd5b9392505050565b6000806020838503121561051357600080fd5b823567ffffffffffffffff8082111561052b57600080fd5b818501915085601f83011261053f57600080fd5b81358181111561054e57600080fd5b86602082850101111561056057600080fd5b60209290920196919550909350505050565b600060208083528351808285015260005b8181101561059f57858101830151858201604001528201610583565b818111156105b1576000604083870101525b50601f017fffffffffffffffffffffffffffffffffffffffffffffffffffffffffffffffe016929092016040019392505050565b600181811c908216806105f957607f821691505b60208210811415610633577f4e487b7100000000000000000000000000000000000000000000000000000000600052602260045260246000fd5b5091905056fea2646970667358221220cae7ed4fb5b58439cab64ecdf1a47ed24204ee2691bbc39078d580619fe180f764736f6c63430008060033",
  "devdoc": {
    "kind": "dev",
    "methods": {},
    "version": 1
  },
  "userdoc": {
    "kind": "user",
    "methods": {
      "acceptOwnership()": {
        "notice": "Allows an ownership transfer to be completed by the recipient."
      },
      "owner()": {
        "notice": "Get the current owner"
      },
      "transferOwnership(address)": {
        "notice": "Allows an owner to begin transferring ownership to a new address, pending."
      }
    },
    "version": 1
  },
  "storageLayout": {
    "storage": [
      {
        "astId": 112,
        "contract": "contracts/MyContract.sol:MyContract",
        "label": "s_owner",
        "offset": 0,
        "slot": "0",
        "type": "t_address"
      },
      {
        "astId": 114,
        "contract": "contracts/MyContract.sol:MyContract",
        "label": "s_pendingOwner",
        "offset": 0,
        "slot": "1",
        "type": "t_address"
      },
      {
        "astId": 361,
        "contract": "contracts/MyContract.sol:MyContract",
        "label": "greeting",
        "offset": 0,
        "slot": "2",
        "type": "t_string_storage"
      }
    ],
    "types": {
      "t_address": {
        "encoding": "inplace",
        "label": "address",
        "numberOfBytes": "20"
      },
      "t_string_storage": {
        "encoding": "bytes",
        "label": "string",
        "numberOfBytes": "32"
      }
    }
  }
}